:100000000070002011040000790400007904000051
:100010007904000079040000790400000000000069
:100020000000000000000000000000007904000053
:10003000790400000000000079040000851C000025
:100040006B130000751300007F130000891300007C
:10005000931300009D130000A7130000B1130000CC
:10006000BB130000C5130000CF130000D91300001C
:10007000E3130000ED130000F7130000011400006B
:100080000B140000790400007904000079040000DA
:10009000790400007904000079040000790400006C
:1000A000790400007904000079040000790400005C
:1000B000790400007904000079040000790400004C
:1000C000790400007904000079040000790400003C
:1000D000790400007904000079040000790400002C
:1000E000790400007904000079040000790400001C
:1000F000790400007904000079040000790400000C
:1001000079040000790400007904000079040000FB
:1001100079040000790400007904000079040000EB
:1001200079040000790400007904000079040000DB
:1001300079040000790400007904000079040000CB
:1001400079040000790400007904000079040000BB
:1001500079040000790400007904000079040000AB
:10016000790400007904000079040000790400009B
:100170007904000079040000151A00001F1A00001D
:10018000291A0000331A00003D1A0000790400000B
:1001900079040000471A0000511A00007904000099
:1001A0005B1A000079040000790400007904000063
:1001B000651A00006F1A000079040000791A000027
:1001C000790400007904000079040000790400003B
:1001D000790400007904000079040000790400002B
:1001E000790400007904000079040000790400001B
:1001F000790400007904000079040000790400000B
:1003F000790400007904000079040000FFFFFFFF8A
:10040000FFFFFFFFFFFFFFFFFFFFFFFFFE7FFFFF7D
:1004100072B64FF000014FF000024FF000034FF0B2
:1004200000044FF000054FF000064FF00007B846FB
:10043000B946BA46BB46BC460A490B4A521A013A6B
:1004400005DD0020042308601944043AFBDA07485C
:100450008546074880470748804762B601F0D6FCCA
:10046000FEE700000080FF1F0070002000700020E9
:100470007D040000B9040000FFF7FEBF4FF0E02349
:10048000D3F8882D42F47002C3F8882DD3F8342FA6
:1004900022F08042C3F8342F054B064A5A605A684E
:1004A00042F220121A604FF6FF729A60704700BF46
:1004B0000020054020C528D9264B274A9A4208D05B
:1004C00013462448254A13F8011B02F8011B9842E1
:1004D000F9D1234B234A9A4208D013462048224A96
:1004E00013F8011B02F8011B8342F9D11F4B204A6C
:1004F0009A4206D0134600211C4A03F8011B93427E
:10050000FBD11C4B1C4A9A4208D0134619481B4A7F
:1005100013F8011B02F8011B8342F9D1184B194A49
:100520009A4212D010B4184CA40808D019460023DF
:1005300051F8040B42F8040B0133A342F8D1134BDA
:10054000104A1A605DF8044B7047104B0C4A1A6051
:10055000704700BF942200000C2000000084FF1FA1
:1005600094220000942200008886FF1F30000020A3
:1005700000000020942200009422000000000020CF
:10058000000000000080FF1F0004000008ED00E0F4
:10059000074B5B69DBB2042B06D0802B06D0012B06
:1005A0000CBF0120042070470220704703207047D1
:1005B00000E00740044BD3F8003113F0807F1ABFEE
:1005C000024B1868002070470040064010000020D1
:1005D00010B584B00B46002938D0444AD2F8002127
:1005E00012F0007F7DD1414AD2F8001121F40001C0
:1005F000C2F800114FF08061C2F8001100213C4A9E
:100600001160002870D05A7A120202F4E062197A5E
:1006100001F007010A433548C0F80421DA791201D4
:1006200002F030029979C90001F008010A435979B2
:10063000890001F004010A43C0F808211A79012A4F
:100640002FD0CAB1022A38D000BEFEE700238DF8B1
:1006500004308DF80C3001228DF808208DF8092027
:100660008DF805208DF8063002238DF8073004AB95
:10067000204A43F8102DB0E71A7B002A14BF4FF42C
:100680000002002242F001021849C1F800211A6854
:10069000174B1A60184CFFF78DFFE8B9D4B1013C35
:1006A000F9E71A7B002A14BF4FF40002002242F03F
:1006B00001120E49C1F80021E9E71A7B002A14BF94
:1006C0004FF403024FF4403242F001020749C1F8EF
:1006D0000021DCE7032005E0002C14BF00200320EC
:1006E00000E0022004B010BD0020FBE700400640FF
:1006F0001000002000127A0088E73000084BD3F881
:10070000003213F0807F09D0054BD3F8083203F094
:100710000103002B034808BF0020704700207047EA
:100720000040064000127A0010B582B00B46002946
:1007300038D02D4AD2F8002212F0007F4FD12A4A39
:10074000D2F8001221F40001C2F800120021C2F810
:100750000012002846D09A78120202F4E06259781A
:1007600001F007010A432049C1F804221A7802F077
:100770000102C1F8082259799A791B79002B14BF1C
:1007800003230123002914BF042100210B43002A65
:1007900014BF4FF4000200221343134AC2F8003280
:1007A000642410E000238DF8043001228DF8052028
:1007B0008DF806308DF801208DF8022002AB03F889
:1007C000082DB6E7013CFFF799FF18B9002CF9D1C5
:1007D000032005E0002C14BF0020032000E00220CD
:1007E00002B010BD0020FBE700400640054BD3F8E7
:1007F000003313F0807F1DBF024BD3F8083302484B
:100800000020704700400640006CDC0210B582B04A
:100810000B46002932D0294AD2F8002312F0007F7B
:1008200047D1264AD2F8001321F40001C2F8001380
:100830004FF08061C2F8001300283DD09A78120270
:1008400002F4E062597801F007010A431B49C1F83C
:1008500004231A7802F00302C1F808239A795B791D
:10086000002B14BF01230923002A14BF4FF40002F8
:1008700000221343C1F8003364240EE001238DF8F5
:10088000053000228DF806208DF801308DF80230F9
:1008900002AB03F8082DBEE7013CFFF7A7FF18B92C
:1008A000002CF9D1032005E0002C14BF0020032008
:1008B00000E0022002B010BD0020FBE7004006402F
:1008C00008B50F4BD3F8003613F0807F02D1002318
:1008D000184608BDFFF76EFE03460028F8D0084909
:1008E000D1F80826C2F302220132B0FBF2F3D1F8AC
:1008F0000826C2F30442103203FB02F35B08E7E769
:100900000040064010B584B00C4689B900238DF82C
:1009100004308DF80B3001228DF808208DF8092065
:100920008DF8053007228DF806208DF8073001ACD0
:100930003D4BD3F8003613F0007F71D13A4BD3F81A
:10094000002622F40002C3F800264FF08062C3F8AC
:100950000026002866D0FFF72DFE034608B900BE2A
:10096000FEE760780130B3FBF0F0A0F5F400A0F5ED
:1009700090502E4B984201D900BEFEE763791B02CE
:1009800003F4E063227902F0070213432649C1F819
:10099000043663781B0203F4E063A278120402F4C5
:1009A000F8121343C1F808362378012B18D01BB175
:1009B000022B21D000BEFEE7E379002B14BF4FF4D9
:1009C0000003002343F00103174AC2F800364FF436
:1009D0007A74FFF775FFF0B9DCB9032004B010BDDD
:1009E000E379002B14BF4FF40003002343F00113FD
:1009F0000D4AC2F80036EAE7E379002B14BF4FF442
:100A000003034FF4403343F00103074AC2F80036B2
:100A1000DDE7013CDDE7002C14BF00200320DDE70B
:100A20000220DBE70020D9E70040064000366E01D7
:100A30002DE9F84391F802904E780D780746003082
:100A400018BF012008B900BEFEE780460C46CB78EF
:100A5000013B052B52D8DFE803F003484B51514EC0
:100A6000FFF7A8FD09F1010206FB022605FB02259E
:100A70000309022F44D0032F78D0012F40F0B58016
:100A8000E1780C2000FB01F0664F3858000902FBAA
:100A900000F2934200F2AB800C2202FB017252681A
:100AA000120906FB02F6B34200F2A4800C2202FBFC
:100AB00001729268120905FB02F5AB4200F29D80BB
:100AC000A3781B0403F47023090601F070610B4343
:100AD000227802F00F02134362781201D2B213435C
:100AE000514A53610020BDE8F883FFF707FEB9E7DC
:100AF000FFF77CFEB6E7FFF7E3FEB3E70020B1E7C0
:100B0000E178022901D000BEFEE70C2000FB01F0D5
:100B1000464F3858000902FB00F2934270D80C226D
:100B200002FB01725268120906FB02F6B3426AD850
:100B30000C2202FB01729268120905FB02F5AB421E
:100B400064D8A3781B0403F47023090601F07061D4
:100B50000B43227802F00F02134362781201D2B2E3
:100B60001343314A93610020BDE8F883E1780329FB
:100B700005D0062914BF4FF000084FF00108B8F166
:100B8000000F01D100BEFEE70C2000FB01F0284F52
:100B90003858000902FB00F293423AD80C2202FBBB
:100BA00001725268120906FB02F6B34234D80C22D5
:100BB00002FB01729268120905FB02F5AB422ED8C6
:100BC000A3781B0403F47023090601F070610B4342
:100BD000227802F00F02134362781201D2B213435B
:100BE000114AD3610020BDE8F88300BEFEE7012072
:100BF000BDE8F8830120BDE8F8830120BDE8F88353
:100C00000120BDE8F8830120BDE8F8830120BDE89C
:100C1000F8830120BDE8F8830120BDE8F8830120B6
:100C2000BDE8F883501F000000400640A41F0000EC
:100C3000FC1E000008B900BEFEE710B50446C378EC
:100C4000FF2B01D100BEFEE7FFF7A2FC042801D173
:100C500000BEFEE72146FFF7EBFE034658B9E478F5
:100C60000A220848013A0169C1F303618C4204D0A9
:100C7000002AF7D10323184610BD002A08BF03231A
:100C8000F9E700BF00400640F0B5A5B00446FFF705
:100C90007FFC012801D000BEFEE72CB12646002CC7
:100CA00040F0718100BEFEE701238DF80B30002279
:100CB0008DF80C208DF80D308DF80E208DF8083051
:100CC0008DF809308DF80A308DF816308DF8143013
:100CD0008DF815208DF80F208DF810308DF811301B
:100CE0008DF838300D928DF82530BA4906918DF87F
:100CF0001C208DF824208DF81D308DF81E20022038
:100D00008DF81F008DF820308DF821308DF83030AF
:100D10008DF828208DF82F208DF829200C218DF8B2
:100D20002A108DF82B208DF82C308DF82D308DF871
:100D30003D3003218DF83C108DF84B308DF841107B
:100D40008DF840208DF83F308DF83E308DF845000D
:100D50008DF844308DF843208DF8421006208DF830
:100D600049008DF848208DF847308DF846109A4993
:100D70002291202121918DF84C308DF84D208DF855
:100D80004E208DF84F208DF850308DF854308DF86E
:100D900053308DF852208DF851208DF878308DF831
:100DA00079308DF87A308DF87B308DF87C308DF885
:100DB0007D308DF883308DF8583017921892199243
:100DC0001A921B921C921D928DF87E308DF87F3006
:100DD0008DF880208DF881208DF882208DF88C3060
:100DE0008DF88D308DF88E2002AE34467B4B1B691A
:100DF000C3F30363032B1CD0FFF7F8FC38B90021C1
:100E00000120FFF703FD0546002840F0B9800323C9
:100E10008DF8073000228DF8062001228DF805207C
:100E200024A800F88C3DFFF705FF0546002840F098
:100E3000A7803146E078FFF777FC054668B904F1F2
:100E40001001607FFFF7C4FB054630B904F12001B3
:100E500094F82800FFF756FD0546FFF799FB022896
:100E600000F09980032800F09980012840F09980D3
:100E700004F13606002D53D1F378032B40F0938014
:100E800094F82830002B00F0F28106238DF807300B
:100E900002238DF8063001238DF8053024A800F8D0
:100EA0008C3DFFF7C7FE0546637F7BB1012820D14B
:100EB00001238DF8073000228DF806208DF80530CB
:100EC00024A800F88C3DFFF7B5FE0546E37883B112
:100ED000012D0ED102238DF8073000238DF8063046
:100EE0008DF8053024A8012300F88C3DFFF7A2FE01
:100EF0000546ADB9E11DA07BFFF788FC054678B932
:100F0000F3788DF80730B3788DF8063073788DF864
:100F10000530337824A800F88C3DFFF78BFE05469A
:100F200075BB00222E4B1A6094F8303013B1E26A80
:100F30002B4B1A6094F8353053B128490A6A22F0D5
:100F4000706294F834301B0603F0706313430B6235
:100F500094F84330D3B104F136010120FFF768FD66
:100F6000054668B904F13A010220FFF761FD054624
:100F700030B904F13E010320FFF75AFD054628B1C0
:100F8000284625B0F0BD002C7FF430AF14F1440F9B
:100F900028D100BEFEE704F13A066BE704F13E06F5
:100FA00068E700BEFEE78DF80730B3788DF80630AD
:100FB00073788DF80530337824A800F88C3DFFF75E
:100FC00039FE05460028ABD1E11DA07BFFF71EFCD2
:100FD0000546A5E700127A000084FF1F0040064086
:100FE0000000002094F84430E3B194F8455094F8A0
:100FF000463094F84720A349486820F400604860D0
:10100000496821F47F61002D14BF4FF40060002077
:101010001B01DBB2120202F4E06213430B430343F1
:10102000984A536094F84830DBB194F84A3094F809
:1010300049209449096921F03F0194F84C0001438B
:1010400094F84B00002814BF022000209B0003F0FE
:101050000C030B43120102F0300213430343894A8D
:10106000136194F87030002B37D0864B196C21F047
:10107000010194F871200A431A641B6C23F00203E7
:1010800094F87220002A14BF0222002213437D4AE2
:101090001364136C23F0040394F87320002A14BF24
:1010A000042200221343774A1364136C23F00803CD
:1010B00094F87420002A14BF082200221343714AB6
:1010C0001364136C23F0100394F87520002A14BFE6
:1010D0001022002213436B4A136494F85030002B03
:1010E00031D0694B626D1A60A26D5A60E26D9A60F0
:1010F00004F160050121634855F8043BC2684E1EA7
:10110000F6B2032E47D8DFE806F0020A111822F0E3
:1011100040721B0603F040731343C3603EE022F0AD
:1011200040629B0603F040631343F6E722F040520F
:101130001B0703F040531343EFE722F0404242EA1B
:101140008373504AD36094F87630EBB14D4A936E76
:1011500000209066516821F4805194F878301B0388
:1011600003F480530B435360906694F877305BB17F
:1011700094F879305B0003F00E0394F87A2042F083
:10118000805213433F4A936604F17C0314F17C0FB1
:1011900007D100BEFEE7C2600329D4D80131C9B22D
:1011A000AAE7002B38D0D4F88030002B34D0E36F7E
:1011B00093B300223548364D02EB8201D4F88030DB
:1011C0005B5C30F813309B0003F1804303F5CA23C6
:1011D0001E6826F080461E60D4F880305F185E5C82
:1011E000BB781B0603F0E063F978C90001F0080141
:1011F0000B43397901F007010B437978002914BFBB
:101200004FF0804100210B4330F8161045F8213093
:101210000132E36F9A42CFD314F1840F01D100BEA3
:10122000FEE794F8843003B31A498B7803F07F0308
:1012300094F8852082F0010243EAC213DBB28B707E
:1012400094F98630002BBCBF20335BB2DAB2202A7F
:1012500001D900BEFEE70F490A7903F01F0302F02F
:10126000E00213430B7100258AE6002588E6637FC0
:10127000002B7FF41DAEE378002B7FF42BAE01250D
:1012800037E600BF00800440040000205C1E000020
:101290000050064000D0074000F00F0001230BB9BA
:1012A00000BEFEE7034A10770BB900BEFEE7014B14
:1012B000D87770470080004010B5064B1B6853F884
:1012C0002040FFF7E9FF24B1636813B1217BA068D8
:1012D000984710BD1400002070B5054600F00F06B9
:1012E000002231460A4800F03BF80A4B1B6853F8CD
:1012F00025405CB12846FFF7CFFF054B9E770123C1
:101300002373636813B1217BA068984770BD00BF49
:1013100000800040140000200F2801D900BEFEE725
:1013200008B5094B1B680BB900BEFEE753F8203027
:101330000BB900BEFEE7002200F00F01034800F0E9
:101340000FF8002008BD00BF1400002000800040FE
:1013500008B100BEFEE70148704700BF00800040B2
:101360000AB981767047C176704708B50020FFF74B
:10137000A3FF08BD08B50120FFF79EFF08BD08B513
:101380000220FFF799FF08BD08B50320FFF794FF7F
:1013900008BD08B50420FFF78FFF08BD08B505207C
:1013A000FFF78AFF08BD08B50620FFF785FF08BDD7
:1013B00008B50720FFF780FF08BD08B50820FFF734
:1013C0007BFF08BD08B50920FFF776FF08BD08B50B
:1013D0000A20FFF771FF08BD08B50B20FFF76CFF6F
:1013E00008BD08B50C20FFF767FF08BD08B50D2044
:1013F000FFF762FF08BD08B50E20FFF75DFF08BDCF
:1014000008B50F20FFF758FF08BD38B50020FFF7DB
:101410009FFFC56A002404E06D080134E4B2102C7B
:1014200006D015F0010FF7D02046FFF755FFF3E780
:1014300038BD0000022801D900BEFEE770B506469F
:10144000294B53F8204094F81131D3B16379DBB2C2
:10145000032B28D0256894F81001FFF75DFF2B6857
:1014600013F4001F02D16A68920C6A60C3F303434D
:1014700085F84830AB681BBAAB60EB681BBAEB6011
:1014800011E01A4B53F8205000220521284600F0A5
:10149000F6F900220621284600F0F1F90022072182
:1014A000284600F0ECF9002323606379DBB2032BBC
:1014B00008D000236371D4F800511DB194F81131A4
:1014C000012B04D0A3790BB1637933B170BD2346EE
:1014D000002208213046A847F4E7201D00F0DAFB7F
:1014E0000028F3D000BEFEE718000020F81F00001F
:1014F000022801D900BEFEE770B50C46094B53F82F
:1015000020600022084B53F8200000F0B8F9E400F6
:101510003519AB791BB10434301900F0BBFB002343
:101520006B7170BD18000020F81F0000022801D95F
:1015300000BEFEE710B5074B53F82040064B53F8AA
:101540002020D2F808310BB10A219847204600F03C
:10155000B5F910BDF81F000018000020022801D9BD
:1015600000BEFEE72DE9F04395B08C4B53F82050B8
:101570008B4B53F82060AB6A2A6B134003F00103D6
:10158000002463B90134202C00F0B280AB6A2A6BCE
:10159000134004F01F02D34003F00103F1E7002BD6
:1015A00000F0A68007462B6813F0005F79D0072C67
:1015B00077D8052C21D17379DBB2012B2AD1316880
:1015C000284600F085F920232B6300237371D6F899
:1015D0000081B8F1000F04D03346002201213846C3
:1015E000C047737913B93846FFF724FF06EBC403ED
:1015F0005B79DBB2022B65D112E0062C43D140238C
:101600002B63D6F80081B8F1000F03D033460022D7
:101610000221C04706EBC4035B79DBB2022B51D138
:1016200006EBC40898F80730002B00F0A380214691
:10163000284600F0A1F901AA2146284600F0A1F9A8
:10164000AB689DF8073003F00F03042B06D104F0BC
:101650001F02012393401F2C00D82B63002388F81E
:101660000530D6F80091B9F1000F04D03346224678
:1016700004213846C84798F805300BBB2146384648
:10168000FFF736FF1CE0072C14D180232B63D6F81C
:101690000081B8F1000FBDD0334600220321C047BE
:1016A000B8E74FEAC40906EB090898F80530DBB241
:1016B000012B20D006EBC4035B79DBB2022BAFD049
:1016C0001F2C15D8AB6A296B04F01F020B40D340C6
:1016D00013F0010F0CD02B6813F0005F52D0072CD1
:1016E00050D8737923B9012393401F2C00D82B6362
:1016F00015B0BDE8F0832146284600F03DF956F8C4
:1017000034202146284600F03CF904F01F02012352
:1017100093401F2C98BF2B632B6813F0005F27D0DA
:1017200056F80930DB7813F00F0F21D121462846F7
:1017300000F00AF9036823F070630360036843F064
:1017400080630360002388F80530D6F80091B9F172
:10175000000F04D03346224600213846C84798F887
:101760000530002BA6D121463846FFF7C1FEA1E780
:10177000AB68E7E704F01F02012393401F2C98BFDA
:101780002B636BE706EBC4067379002BB0D1012302
:1017900093401F2CACD82B63AAE700BFF81F0000B2
:1017A00018000020022801D900BEFEE710B5074B43
:1017B00053F82040064B53F82020D2F808310BB1E3
:1017C0000A219847204600F06DF810BDF81F000070
:1017D00018000020022801D900BEFEE7F8B5184B1A
:1017E00053F82050174B53F820602B6813F4804FA8
:1017F00025D00446D5F8083B13F4003F0CD0D5F8AB
:10180000083B43F40033C5F8083BD6F800711FB11C
:10181000334600220521B847D5F8083B13F4803F32
:101820000DD0D5F8083B43F48033C5F8083BD6F813
:10183000005125B13346002206212046A847F8BDB5
:10184000F81F000018000020082817D909380628BA
:1018500013D8DFE800F00406080A0C0E10000C2074
:1018600070471020704714207047182070472020C0
:1018700070473020704740207047002070471F2974
:1018800009D801F01F01012303FA01F12AB9836A83
:1018900023EA0101816200207047836A1943816253
:1018A000F9E70000026A034B134013B1024B0362D5
:1018B000036A704706003B0002003000026A034BD7
:1018C000134013B1014B0362036A704704000B001D
:1018D00009B900BEFEE770B50D460446D0F8800099
:1018E000C0F30340FFF7B0FF85F84800D4F880301C
:1018F0002B6013F4001F05D0D4F884306B600646CB
:1019000028B970BDD4F884309B0C6B60F7E70023D6
:10191000883499088A0054F8211009BA2A44916041
:101920000433B342F5D370BD036813F4006F09D0DC
:10193000D0F8000CC0F301400330012303FA00F09B
:10194000C0B270470820FBE738B504460D46FFF7E4
:10195000EBFF0830C0B24FF40073B3FBF0F3DBB21F
:10196000B5FBF3F203FB12538008D20100FB032006
:10197000203004EB800038BD08B5FFF7E5FF0368B1
:1019800008BD0AB900BEFEE72DE9F041144607463E
:10199000FFF7DAFF064604F108080068C0F30340C9
:1019A000FFF752FF05463846FFF7BEFF854203D9D1
:1019B0003846FFF7B9FF054684F84850336823607E
:1019C00013F4001F22D07368636035F0030008BF72
:1019D00000230BD0002399088A000832B25812BAAB
:1019E00048F821200433DBB28342F4D39D420BD963
:1019F000DA1D144483F003020832B25C04F8012FAC
:101A00000133DBB29D42F5D1BDE8F08173689B0CD8
:101A10006360DAE708B50020FFF788FD08BD08B568
:101A20000020FFF7BFFE08BD08B50020FFF7D2FE7B
:101A300008BD08B50020FFF791FD08BD08B50020DE
:101A4000FFF78CFD08BD08B50120FFF76FFD08BD4D
:101A500008B50120FFF7A6FE08BD08B50120FFF775
:101A60007DFD08BD08B50220FFF760FD08BD08B583
:101A70000220FFF797FE08BD08B50220FFF76EFDB4
:101A800008BD0000054B1B68002B04DD013B034A29
:101A90001360002B00DD704762B6FCE724000020D5
:101AA00072B6024A136801331360704724000020A5
:101AB00060B170B506460C460025204600F046F899
:101AC00001351834AE42F8D1002070BD00207047B7
:101AD0004161704781607047C1607047194B9842FF
:101AE0001ED110292AD8DFE801F0090C292929295B
:101AF000292929292929290F1215180042F0010046
:101B0000704742F00200704742F00400704742F014
:101B10000800704702F00E00704702F00D00704799
:101B2000094B98420CD119B1012904D0FF2070470C
:101B300002F00B00704702F007007047FF2070476B
:101B4000FF20704700A0044000B0044038B50446B0
:101B50000068031C18BF01230BB900BEFEE71A463C
:101B6000E37A012B02D032B900BEFEE722690032CF
:101B700018BF0122F7E761681F2901D900BEFEE7FF
:101B800050F82120257A012D58D01DB1022D5AD0B0
:101B900000BEFEE722F00202657A2D0105F0100575
:101BA00022F050022A43A57AAD0105F040052A43F0
:101BB00022F4E065082B12D1314B5A6802F00F0273
:101BC000FFF78CFFFF2841D02D4A536823F00F0305
:101BD0005360516800F00F030B43536000231B0256
:101BE00003F4E0632B43227BD20392B223F47823E5
:101BF0001343627B120402F470221343A27B0AB1E6
:101C000043F080732268616842F821302168D1F87E
:101C1000C03060680122824023EA0202E37B8340F5
:101C20001343C1F8C030E37A012B18D121694B6905
:101C3000227D6AB1012A13D000BEFEE722F0010224
:101C400042F00202A8E742F00302A5E70023C6E73C
:101C5000616801228A4023EA02032269536138BD88
:101C6000606801228240134305460A680120A840AB
:101C700022EA0000627DAA4002430A60EDE700BF4D
:101C800000800440024A136801331360704700BFAC
:101C90002800002008B900BEFEE710B50446FFF793
:101CA000FFFE2378DBB2FF2B08D023780133DBB2B1
:101CB00023700024FFF7E6FE204610BD0124F9E75B
:101CC000244AD2F8903043F08043C2F89030224B3F
:101CD0001A6842F000421A605A6822F400525A60B0
:101CE0001A6822F000421A601A46136813F0807FC7
:101CF000FBD01A4A184B5A6000231748194603F1C3
:101D0000200240F822100133802BF8D10023124822
:101D10004FF0FF3103F5087240F822100133102B09
:101D2000F8D10D4B6FF060421A610D4AC3F8C42020
:101D30004FF08062C3F8C0201F221A601A46136851
:101D400013F0807FFBD1044A136813F0006FFBD1BE
:101D5000704700BF00500640004002400600DB0014
:101D600000005415194BD3F8C030C3F30263022BA3
:101D700001D00020704770B40146144BD3F8C00066
:101D8000C0F30340D3F8C850E8B10A460E18002348
:101D900025FA03F402F8014BB24202D00833202B9B
:101DA000F6D1032807D803460B44002403F8014B5F
:101DB0005A1A032AFAD9054BD3F8C0209A68102280
:101DC0001A6370BC70470346EEE700BF0040024054
:101DD00008B50448FEF758FF03490820FFF768FEDE
:101DE00008BD00BFA084FF1FC885FF1F10B5064CAB
:101DF0004FF4C0312046FFF76BFE4FF4C031204650
:101E0000FFF768FE10BD00BFC0F00F4000B583B003
:101E1000FFF7DEFFFFF7EAFFFFF752FF0023019312
:101E20000B4C0C4D0C4E236B13F0010FFBD001A893
:101E3000FFF798FF28600028F5D09DF80430002BAC
:101E4000F1D14FF400413046FFF746FEEBE700BF0B
:101E5000004002402C000020C0F00F4000000000B5
:101E60000000000000000000000000000000000072
:101E70000000000000000000000000000000000062
:101E80000000000000000000000000000000000052
:101E90000000000000000000000000000000000042
:101EA00000000000000000000000000000007300BF
:101EB00032002100610049004A004B004C004D00F7
:101EC0003D000000240025002B00360031000000FA
:101ED00020000000380039003A00260000003B00D6
:101EE00027005A00660037002C002D002E0040000D
:101EF0006A006B006C0000000000000000000000A1
:101F0000000000000000000000FCAC06007E56034C
:101F1000003FAB0100FCAC06007E5603003FAB0166
:101F200000FCAC06007E5603003FAB010000000041
:101F300000000000000000000000000000000000A1
:101F40000000000000FCAC06007E5603003FAB0121
:101F500000000000000000000000000000B4C40405
:101F6000006CDC02B0F3960100B4C404006CDC0227
:101F7000B0F3960100B4C404006CDC02B0F3960127
:101F80000000000000000000000000000000000051
:101F9000000000000000000000B4C404005A620207
:101FA000B0F39601000000000000000000000000F7
:101FB00000093D0000093D0040420F0000093D00BE
:101FC00000093D0040420F0000093D0000093D00AE
:101FD00040420F0000000000000000000000000070
:101FE00000000000000000000000000000093D00AB
:101FF00000093D0040420F000040024000500240F6
:0C20000000B00240F8B500BFF8B500BF0A
:10200C004101020000420102000029010000002AE7
:10201C00010000002B010000002C01000000340125
:10202C0000000035010000003601000000430102F1
:10203C0000003A010000003C010200003D010200DA
:10204C00003E010200003F010200004401020000BA
:10205C004501020000460102000047010200004851
:10206C000102000049010200004A010200004B017C
:10207C000200004C01020000370100000038010092
:10208C0000002D010000002E010000002F010000B7
:10209C00003001000000310100000032010000009E
:1020AC00010101010101000001010000010001001A
:1020BC0000127A0000010003010100000001000081
:1020CC0000000C00020300000100000000000000F2
:1020DC0000000000030101000003030001020301E2
:1020EC0000060001010100000100000101000000D8
:1020FC000100000080841E000000000000000000B1
:10210C0000000000000000000000000000000000C3
:10211C00010101010101010100000000200000008B
:10212C002885FF1F0101000041010200004201024D
:10213C0000004601020000470102000048010200B5
:10214C00004A010100004B010100004C010100009C
:10215C004401020000450102000049010200003C5C
:10216C00010200003D010200003E010200003F019F
:10217C00020000430102000029010000002A0100B6
:10218C0000002B010000002C010000003A010000AF
:10219C00003701000000380100000032010000008F
:1021AC003401000000350100000036010000002D54
:1021BC00010000002E010000002F01000000300182
:1021CC00000000310100000000B0044000000000DD
:1021DC00000000010000000080F00F400100000032
:1021EC0000B00440010000000000000100000000ED
:1021FC0080F00F400100000000B004400C00000013
:10220C00000000010000000080F00F400000000002
:10221C0000B004400D0000000000000100000000B0
:10222C0080F00F400000000000C004400F000000D0
:10223C000000000100000000C0F00F400100000091
:10224C0000C004401000000000000001000000006D
:10225C00C0F00F400100000000D00440040000005A
:10226C00000000050000000000000000000000005D
:10227C0000D0044005000000000000050000000034
:08228C0000000000000000004A
:0400000300000411E4
:00000001FF
