:100000000070002011040000790400007904000051
:100010007904000079040000790400000000000069
:100020000000000000000000000000007904000053
:100030007904000000000000790400007D34000015
:10004000671A0000711A00007B1A0000851A000070
:100050008F1A0000991A0000A31A0000AD1A0000C0
:10006000B71A0000C11A0000CB1A0000D51A000010
:10007000DF1A0000E91A0000F31A0000FD1A000060
:10008000071B0000790400007904000079040000D7
:10009000790400007904000079040000790400006C
:1000A000790400007904000079040000790400005C
:1000B000790400007904000079040000790400004C
:1000C000790400007904000079040000790400003C
:1000D000790400007904000079040000790400002C
:1000E000790400007904000079040000790400001C
:1000F000790400007904000079040000790400000C
:1001000079040000790400007904000079040000FB
:1001100079040000790400007904000079040000EB
:1001200079040000790400007904000079040000DB
:1001300079040000790400007904000079040000CB
:1001400079040000790400007904000079040000BB
:1001500079040000790400007904000079040000AB
:10016000790400007904000079040000790400009B
:100170007904000079040000112100001B21000017
:10018000252100002F210000392100007904000002
:1001900079040000432100004D2100007904000093
:1001A0005721000079040000790400007904000060
:1001B000612100006B21000079040000752100001E
:1001C000790400007904000079040000790400003B
:1001D000790400007904000079040000790400002B
:1001E000790400007904000079040000790400001B
:1001F000790400007904000079040000790400000B
:1003F000790400007904000079040000FFFFFFFF8A
:10040000FFFFFFFFFFFFFFFFFFFFFFFFFE7FFFFF7D
:1004100072B64FF000014FF000024FF000034FF0B2
:1004200000044FF000054FF000064FF00007B846FB
:10043000B946BA46BB46BC460A490B4A521A013A6B
:1004400005DD0020042308601944043AFBDA07485C
:100450008546074880470748804762B603F0FAF8A8
:10046000FEE700000080FF1F0070002000700020E9
:100470007D040000B9040000FFF7FEBF4FF0E02349
:10048000D3F8882D42F47002C3F8882DD3F8342FA6
:1004900022F08042C3F8342F054B064A5A605A684E
:1004A00042F220121A604FF6FF729A60704700BF46
:1004B0000020054020C528D9264B274A9A4208D05B
:1004C00013462448254A13F8011B02F8011B9842E1
:1004D000F9D1234B234A9A4208D013462048224A96
:1004E00013F8011B02F8011B8342F9D11F4B204A6C
:1004F0009A4206D0134600211C4A03F8011B93427E
:10050000FBD11C4B1C4A9A4208D0134619481B4A7F
:1005100013F8011B02F8011B8342F9D1184B194A49
:100520009A4212D010B4184CA40808D019460023DF
:1005300051F8040B42F8040B0133A342F8D1134BDA
:10054000104A1A605DF8044B7047104B0C4A1A6051
:10055000704700BF943B0000003900000084FF1F7B
:10056000943B0000943B00009486FF1FDC000020B9
:1005700000000020943B0000943B0000000000209D
:10058000000000000080FF1F0004000008ED00E0F4
:10059000074B5B69DBB2042B06D0802B06D0012B06
:1005A0000CBF0120042070470220704703207047D1
:1005B00000E00740044BD3F8003113F0807F1ABFEE
:1005C000024B1868002070470040064010000020D1
:1005D00010B584B00B46002938D0444AD2F8002127
:1005E00012F0007F7DD1414AD2F8001121F40001C0
:1005F000C2F800114FF08061C2F8001100213C4A9E
:100600001160002870D05A7A120202F4E062197A5E
:1006100001F007010A433548C0F80421DA791201D4
:1006200002F030029979C90001F008010A435979B2
:10063000890001F004010A43C0F808211A79012A4F
:100640002FD0CAB1022A38D000BEFEE700238DF8B1
:1006500004308DF80C3001228DF808208DF8092027
:100660008DF805208DF8063002238DF8073004AB95
:10067000204A43F8102DB0E71A7B002A14BF4FF42C
:100680000002002242F001021849C1F800211A6854
:10069000174B1A60184CFFF78DFFE8B9D4B1013C35
:1006A000F9E71A7B002A14BF4FF40002002242F03F
:1006B00001120E49C1F80021E9E71A7B002A14BF94
:1006C0004FF403024FF4403242F001020749C1F8EF
:1006D0000021DCE7032005E0002C14BF00200320EC
:1006E00000E0022004B010BD0020FBE700400640FF
:1006F0001000002000127A0088E73000084BD3F881
:10070000003213F0807F09D0054BD3F8083203F094
:100710000103002B034808BF0020704700207047EA
:100720000040064000127A0010B582B00B46002946
:1007300038D02D4AD2F8002212F0007F4FD12A4A39
:10074000D2F8001221F40001C2F800120021C2F810
:100750000012002846D09A78120202F4E06259781A
:1007600001F007010A432049C1F804221A7802F077
:100770000102C1F8082259799A791B79002B14BF1C
:1007800003230123002914BF042100210B43002A65
:1007900014BF4FF4000200221343134AC2F8003280
:1007A000642410E000238DF8043001228DF8052028
:1007B0008DF806308DF801208DF8022002AB03F889
:1007C000082DB6E7013CFFF799FF18B9002CF9D1C5
:1007D000032005E0002C14BF0020032000E00220CD
:1007E00002B010BD0020FBE700400640054BD3F8E7
:1007F000003313F0807F1DBF024BD3F8083302484B
:100800000020704700400640006CDC0210B582B04A
:100810000B46002932D0294AD2F8002312F0007F7B
:1008200047D1264AD2F8001321F40001C2F8001380
:100830004FF08061C2F8001300283DD09A78120270
:1008400002F4E062597801F007010A431B49C1F83C
:1008500004231A7802F00302C1F808239A795B791D
:10086000002B14BF01230923002A14BF4FF40002F8
:1008700000221343C1F8003364240EE001238DF8F5
:10088000053000228DF806208DF801308DF80230F9
:1008900002AB03F8082DBEE7013CFFF7A7FF18B92C
:1008A000002CF9D1032005E0002C14BF0020032008
:1008B00000E0022002B010BD0020FBE7004006402F
:1008C00008B50F4BD3F8003613F0807F02D1002318
:1008D000184608BDFFF76EFE03460028F8D0084909
:1008E000D1F80826C2F302220132B0FBF2F3D1F8AC
:1008F0000826C2F30442103203FB02F35B08E7E769
:100900000040064010B584B00C4689B900238DF82C
:1009100004308DF80B3001228DF808208DF8092065
:100920008DF8053007228DF806208DF8073001ACD0
:100930003D4BD3F8003613F0007F71D13A4BD3F81A
:10094000002622F40002C3F800264FF08062C3F8AC
:100950000026002866D0FFF72DFE034608B900BE2A
:10096000FEE760780130B3FBF0F0A0F5F400A0F5ED
:1009700090502E4B984201D900BEFEE763791B02CE
:1009800003F4E063227902F0070213432649C1F819
:10099000043663781B0203F4E063A278120402F4C5
:1009A000F8121343C1F808362378012B18D01BB175
:1009B000022B21D000BEFEE7E379002B14BF4FF4D9
:1009C0000003002343F00103174AC2F800364FF436
:1009D0007A74FFF775FFF0B9DCB9032004B010BDDD
:1009E000E379002B14BF4FF40003002343F00113FD
:1009F0000D4AC2F80036EAE7E379002B14BF4FF442
:100A000003034FF4403343F00103074AC2F80036B2
:100A1000DDE7013CDDE7002C14BF00200320DDE70B
:100A20000220DBE70020D9E70040064000366E01D7
:100A30002DE9F84391F802904E780D780746003082
:100A400018BF012008B900BEFEE780460C46CB78EF
:100A5000013B052B52D8DFE803F003484B51514EC0
:100A6000FFF7A8FD09F1010206FB022605FB02259E
:100A70000309022F44D0032F78D0012F40F0B58016
:100A8000E1780C2000FB01F0664F3858000902FBAA
:100A900000F2934200F2AB800C2202FB017252681A
:100AA000120906FB02F6B34200F2A4800C2202FBFC
:100AB00001729268120905FB02F5AB4200F29D80BB
:100AC000A3781B0403F47023090601F070610B4343
:100AD000227802F00F02134362781201D2B213435C
:100AE000514A53610020BDE8F883FFF707FEB9E7DC
:100AF000FFF77CFEB6E7FFF7E3FEB3E70020B1E7C0
:100B0000E178022901D000BEFEE70C2000FB01F0D5
:100B1000464F3858000902FB00F2934270D80C226D
:100B200002FB01725268120906FB02F6B3426AD850
:100B30000C2202FB01729268120905FB02F5AB421E
:100B400064D8A3781B0403F47023090601F07061D4
:100B50000B43227802F00F02134362781201D2B2E3
:100B60001343314A93610020BDE8F883E1780329FB
:100B700005D0062914BF4FF000084FF00108B8F166
:100B8000000F01D100BEFEE70C2000FB01F0284F52
:100B90003858000902FB00F293423AD80C2202FBBB
:100BA00001725268120906FB02F6B34234D80C22D5
:100BB00002FB01729268120905FB02F5AB422ED8C6
:100BC000A3781B0403F47023090601F070610B4342
:100BD000227802F00F02134362781201D2B213435B
:100BE000114AD3610020BDE8F88300BEFEE7012072
:100BF000BDE8F8830120BDE8F8830120BDE8F88353
:100C00000120BDE8F8830120BDE8F8830120BDE89C
:100C1000F8830120BDE8F8830120BDE8F8830120B6
:100C2000BDE8F883DC3700000040064030380000A3
:100C30008837000008B900BEFEE710B50446C37847
:100C4000FF2B01D100BEFEE7FFF7A2FC042801D173
:100C500000BEFEE72146FFF7EBFE034658B9E478F5
:100C60000A220848013A0169C1F303618C4204D0A9
:100C7000002AF7D10323184610BD002A08BF03231A
:100C8000F9E700BF00400640022801D900BEFEE798
:100C900010B504461B4B1B69C3F30363013B052BD3
:100CA0001DD8DFE803F00313161C1C19FFF782FCA4
:100CB000144B1B69C3F303430133B0FBF3F0012C66
:100CC0000FD0ECB1022C14D0002010BDFFF716FDA0
:100CD000EEE7FFF78BFDEBE7FFF7F2FDE8E700201B
:100CE000E6E7084B1B69C3F303130133B0FBF3F0D2
:100CF00010BD044B1B6903F00F030133B0FBF3F08D
:100D000010BD00BF0040064008B50F4B1B6AC3F37F
:100D10000363062B15D8DFE803F004080B0E141448
:100D200011000220FFF7B0FF08BDFFF743FC08BD2C
:100D3000FFF7E4FC08BDFFF759FD08BDFFF7C0FD54
:100D400008BD002008BD00BF0040064008B519B12D
:100D500001292FD000BEFEE70438032828D8DFE899
:100D600000F00F02171FFFF741FD274BD3F80433A4
:100D700003F0070313B1013B20FA03F3184608BD43
:100D8000FFF7BCFC204BD3F8043203F00703F1E774
:100D9000FFF710FC1C4BD3F8043103F00703E9E71D
:100DA000FFF78EFD184BD3F8043603F00703E1E795
:100DB00000BEFEE70438032823D8DFE800F00A026B
:100DC000121AFFF713FD104BD3F80433C3F30223B9
:100DD000D0E7FFF793FC0C4BD3F80432C3F30223A4
:100DE000C8E7FFF7E7FB084BD3F80431C3F302234E
:100DF000C0E7FFF765FD044BD3F80436C3F30223C5
:100E0000B8E700BEFEE700BF0040064008B5114B42
:100E10001B69C3F30113032B19D8DFE803F00207A2
:100E2000101300210620FFF791FF08BD094B186938
:100E300000F00200002818BF4FF4FA4008BD064B2E
:100E4000186808BD00210520FFF780FF08BD0020BD
:100E500008BD00BF0080044000000020134B1B6948
:100E6000C3F38103032B1BD8DFE803F01C02040D3E
:100E7000002070470D4B186900F00200002818BFD1
:100E80004FF4FA407047094B186910F002000BD07C
:100E9000186900F00100002818BF4FF47A707047FD
:100EA00000BEFEE74FF4FA30704700BF00800440F8
:100EB00008B5244B5B6813F4006F40D0214B5B688E
:100EC000C3F303130E2B09D8DFE803F00A080D085B
:100ED0001208171C20252F0829082C00002026E0C6
:100EE000FFF712FF23E001210620FFF72FFF1EE08E
:100EF00001210420FFF72AFF19E001210520FFF757
:100F000025FF14E00020FFF7BFFE10E001210720BD
:100F1000FFF71CFF0BE00120FFF7B6FE07E0FFF72D
:100F20009DFF04E0FFF772FF01E04FF4FA30054B3C
:100F30005B68C3F302230133B0FBF3F008BD00206C
:100F400008BD00BF0080044010B50C4615380E28BF
:100F500000F2A380DFE800F008131E29333D414B67
:100F60005D6A737E87909900584BDB68C3F3016319
:100F7000022B00F29D80564A52F8233022E0534B58
:100F8000DB68C3F38163022B00F29480504A52F86D
:100F9000233017E04D4BDB68C3F30173022B00F2E3
:100FA0008B804B4A52F823300CE0484BDB689B0F98
:100FB000022B00F28380464A52F8233002E0FFF70A
:100FC00077FF03460020002B6AD0002C7CD02360E2
:100FD00010BDFFF71BFF0346F4E73E4B9B78DB0990
:100FE00001D00023EEE7FFF739FF0346EAE7394B6C
:100FF0009B78DB0964D1354B1B6913F00203E1D008
:10100000324B1B6903F00103002B18BF4FF47A73B6
:10101000D8E7304B9B78DB0954D12C4B1B6903F08C
:101020000203002B18BF4FF4FA43CBE7294B9B7800
:10103000DB09002B14BF00234FF4FA33C2E7234B24
:101040001B6CC3F3001383B30120FFF71DFE03469F
:101050000020B8E71D4B1B6CC3F3C003002BF3D17A
:101060004FF48070B1E7194B1B6CC3F38003002B66
:10107000EAD14FF48070A8E7144B1B6CC3F3400314
:10108000002BE1D14FF480709FE7104B1B6C13F0E5
:101090000103D9D14FF4807097E70420002392E731
:1010A000042818BF4FF480708FE74FF480708CE7EE
:1010B000002387E7002385E7002383E7002381E7F8
:1010C00000237FE700237DE710BD00BF00800440C0
:1010D0000400002000D0074030B583B00023019306
:1010E0002E4B33F810309B0003F1804303F5CA23E5
:1010F0001D68C5F3C0051C6804F00704AC4219D391
:101100001A6812F0804F15D01B68C3F30263013BCD
:10111000052B21D8DFE803F003111620201B062041
:10112000FFF714FE01900134019BB3FBF4F405FBBF
:1011300004440194019803B030BD0420FFF706FE7B
:101140000190F0E70520FFF701FE0190EBE7072093
:10115000FFF7FCFD0190E6E73C3803281BD8DFE8E9
:1011600000F002080E1401A91520FFF7EDFE00247F
:10117000D9E701A91620FFF7E7FE0024D3E701A96C
:101180001720FFF7E1FE0024CDE701A91820FFF7A3
:10119000DBFE0024C7E70024C5E700BFE8360000F7
:1011A000F0B5A5B00446FFF7F3F9012801D000BE61
:1011B000FEE72CB12646002C40F0718100BEFEE710
:1011C00001238DF80B3000228DF80C208DF80D30A6
:1011D0008DF80E208DF808308DF809308DF80A3022
:1011E0008DF816308DF814308DF815208DF80F20FD
:1011F0008DF810308DF811308DF838300D928DF853
:101200002530BA4906918DF81C208DF824208DF8E0
:101210001D308DF81E2002208DF81F008DF8203023
:101220008DF821308DF830308DF828208DF82F2062
:101230008DF829200C218DF82A108DF82B208DF89F
:101240002C308DF82D308DF83D3003218DF83C1079
:101250008DF84B308DF841108DF840208DF83F30DF
:101260008DF83E308DF845008DF844308DF84320E0
:101270008DF8421006208DF849008DF848208DF831
:1012800047308DF846109A492291202121918DF8FE
:101290004C308DF84D208DF84E208DF84F208DF874
:1012A00050308DF854308DF853308DF852208DF831
:1012B00051208DF878308DF879308DF87A308DF8AE
:1012C0007B308DF87C308DF87D308DF883308DF853
:1012D00058301792189219921A921B921C921D92D2
:1012E0008DF87E308DF87F308DF880208DF881204C
:1012F0008DF882208DF88C308DF88D308DF88E2011
:1013000002AE34467B4B1B69C3F30363032B1CD033
:10131000FFF76CFA38B900210120FFF777FA05468C
:10132000002840F0B98003238DF8073000228DF8A3
:10133000062001228DF8052024A800F88C3DFFF737
:1013400079FC0546002840F0A7803146E078FFF799
:10135000EBF9054668B904F11001607FFFF738F931
:10136000054630B904F1200194F82800FFF7CAFAC5
:101370000546FFF70DF9022800F09980032800F0D8
:101380009980012840F0998004F13606002D53D150
:10139000F378032B40F0938094F82830002B00F072
:1013A000F28106238DF8073002238DF806300123E1
:1013B0008DF8053024A800F88C3DFFF73BFC05466E
:1013C000637F7BB1012820D101238DF807300022F3
:1013D0008DF806208DF8053024A800F88C3DFFF725
:1013E00029FC0546E37883B1012D0ED102238DF847
:1013F000073000238DF806308DF8053024A801232E
:1014000000F88C3DFFF716FC0546ADB9E11DA07B49
:10141000FFF7FCF9054678B9F3788DF80730B37813
:101420008DF8063073788DF80530337824A800F8ED
:101430008C3DFFF7FFFB054675BB00222E4B1A6063
:1014400094F8303013B1E26A2B4B1A6094F83530BF
:1014500053B128490A6A22F0706294F834301B06AE
:1014600003F0706313430B6294F84330D3B104F17B
:1014700036010120FFF7DCFA054668B904F13A01AC
:101480000220FFF7D5FA054630B904F13E010320EA
:10149000FFF7CEFA054628B1284625B0F0BD002C4E
:1014A0007FF430AF14F1440F28D100BEFEE704F101
:1014B0003A066BE704F13E0668E700BEFEE78DF8EA
:1014C0000730B3788DF8063073788DF805303378AF
:1014D00024A800F88C3DFFF7ADFB05460028ABD1F2
:1014E000E11DA07BFFF792F90546A5E700127A00FF
:1014F0000084FF1F004006400000002094F84430A4
:10150000E3B194F8455094F8463094F84720A34945
:10151000486820F400604860496821F47F61002D2C
:1015200014BF4FF4006000201B01DBB2120202F472
:10153000E06213430B430343984A536094F84830E6
:10154000DBB194F84A3094F849209449096921F0B4
:101550003F0194F84C00014394F84B00002814BF5D
:10156000022000209B0003F00C030B43120102F049
:10157000300213430343894A136194F87030002BFF
:1015800037D0864B196C21F0010194F871200A4381
:101590001A641B6C23F0020394F87220002A14BF13
:1015A0000222002213437D4A1364136C23F00403C8
:1015B00094F87320002A14BF042200221343774AB0
:1015C0001364136C23F0080394F87420002A14BFEA
:1015D000082200221343714A1364136C23F0100392
:1015E00094F87520002A14BF1022002213436B4A7E
:1015F000136494F85030002B31D0694B626D1A603F
:10160000A26D5A60E26D9A6004F1600501216348A1
:1016100055F8043BC2684E1EF6B2032E47D8DFE8E9
:1016200006F0020A111822F040721B0603F0407304
:101630001343C3603EE022F040629B0603F0406328
:101640001343F6E722F040521B0703F040531343C5
:10165000EFE722F0404242EA8373504AD36094F8A5
:101660007630EBB14D4A936E00209066516821F4BC
:10167000805194F878301B0303F480530B4353607C
:10168000906694F877305BB194F879305B0003F0A2
:101690000E0394F87A2042F0805213433F4A936637
:1016A00004F17C0314F17C0F07D100BEFEE7C26099
:1016B0000329D4D80131C9B2AAE7002B38D0D4F815
:1016C0008030002B34D0E36F93B300223548364D81
:1016D00002EB8201D4F880305B5C30F813309B0061
:1016E00003F1804303F5CA231E6826F080461E607E
:1016F000D4F880305F185E5CBB781B0603F0E063B3
:10170000F978C90001F008010B43397901F00701AC
:101710000B437978002914BF4FF0804100210B431F
:1017200030F8161045F821300132E36F9A42CFD3DA
:1017300014F1840F01D100BEFEE794F8843003B3A6
:101740001A498B7803F07F0394F8852082F0010218
:1017500043EAC213DBB28B7094F98630002BBCBF16
:1017600020335BB2DAB2202A01D900BEFEE70F496E
:101770000A7903F01F0302F0E00213430B71002506
:101780008AE6002588E6637F002B7FF41DAEE378B0
:10179000002B7FF42BAE012537E600BF008004400C
:1017A00004000020E83600000050064000D007404A
:1017B00070B504460D46112806D9232872D94D2844
:1017C00074D90423184670BD112868D8DFE800F0EA
:1017D0000911161B1F23272B2F33373D43494F5524
:1017E0005B610020FFF750FA0023002DEAD028604B
:1017F000E8E70120FFF748FA0023F6E70220FFF7A9
:1018000043FA0023F1E7FFF753FB0023EDE7FEF770
:1018100075FF0023E9E7FEF7E9FF0023E5E7FEF7A0
:10182000C9FE0023E1E7FFF74BF80023DDE7524B49
:1018300018680023D9E7FFF767FA0023D5E70021EE
:101840000420FFF783FA0023CFE701210420FFF7EC
:101850007DFA0023C9E700210520FFF777FA00236E
:10186000C3E701210520FFF771FA0023BDE700213E
:101870000620FFF76BFA0023B7E701210620FFF7E8
:1018800065FA0023B1E700210720FFF75FFA002384
:10189000ABE701210720FFF759FA0023A5E7002055
:1018A0000423A2E7FFF750FB03468BE7242805D863
:1018B00004230022002D85D02A6083E7A0F13303A2
:1018C000DBB21A2B07D82D4A22FA03F313F0010FCB
:1018D00018BF0423EDD12A4B33F81420294B53F8B9
:1018E000223013F0804F44D0274B1E5D16F0200F9E
:1018F00007D116F0400F0ED116F0800F15D100BEA3
:10190000FEE70120FFF7C0F9024650B116F0180FAC
:1019100012D10023CEE70020FFF7B6F902460028D7
:10192000F4D100224FF48073C4E70220FFF7ACF932
:1019300002460028F5D0E9E716F0080F06D116F0A8
:10194000100F0BD100224FF48073B3E70021204623
:10195000FFF7C2FB024616F0100F04D0012120460B
:10196000FFF7BAFB0246002A14BF00234FF480732E
:10197000A0E74FF480739CE70000002041210004A1
:10198000E8360000005006408438000008B5FFF734
:101990000FFF08BD00F00F0001230BB900BEFEE7EA
:1019A000034A10770BB900BEFEE7014BD8777047AA
:1019B0000080004010B5064B1B6853F82040FFF72D
:1019C000E9FF24B1636813B1217BA068984710BD7B
:1019D0001400002070B5054600F00F0600223146C5
:1019E0000A4800F03BF80A4B1B6853F825405CB1ED
:1019F0002846FFF7CFFF054B9E77012323736368CB
:101A000013B1217BA068984770BD00BF00800040E3
:101A1000140000200F2801D900BEFEE708B5094BCD
:101A20001B680BB900BEFEE753F820300BB900BEAF
:101A3000FEE7002200F00F01034800F00FF800203D
:101A400008BD00BF140000200080004008B100BEA7
:101A5000FEE70148704700BF008000400AB9817668
:101A60007047C176704708B50020FFF7A3FF08BD97
:101A700008B50120FFF79EFF08BD08B50220FFF75B
:101A800099FF08BD08B50320FFF794FF08BD08B50E
:101A90000420FFF78FFF08BD08B50520FFF78AFF78
:101AA00008BD08B50620FFF785FF08BD08B507206B
:101AB000FFF780FF08BD08B50820FFF77BFF08BDD2
:101AC00008B50920FFF776FF08BD08B50A20FFF723
:101AD00071FF08BD08B50B20FFF76CFF08BD08B506
:101AE0000C20FFF767FF08BD08B50D20FFF762FF68
:101AF00008BD08B50E20FFF75DFF08BD08B50F2033
:101B0000FFF758FF08BD38B50020FFF79FFFC56AF3
:101B1000002404E06D080134E4B2102C06D015F066
:101B2000010FF7D02046FFF755FFF3E738BD00005F
:101B3000022801D900BEFEE770B50646294B53F8CE
:101B4000204094F81131D3B16379DBB2032B28D054
:101B5000256894F81001FFF75DFF2B6813F4001F50
:101B600002D16A68920C6A60C3F3034385F8483077
:101B7000AB681BBAAB60EB681BBAEB6011E01A4BA9
:101B800053F8205000220521284600F0F6F90022E3
:101B90000621284600F0F1F900220721284600F02E
:101BA000ECF9002323606379DBB2032B08D0002318
:101BB0006371D4F800511DB194F81131012B04D098
:101BC000A3790BB1637933B170BD2346002208219C
:101BD0003046A847F4E7201D01F058FC0028F3D058
:101BE00000BEFEE718000020D4380000022801D90A
:101BF00000BEFEE770B50C46094B53F8206000228A
:101C0000084B53F8200000F0B8F9E4003519AB791F
:101C10001BB10434301901F039FC00236B7170BD25
:101C200018000020D4380000022801D900BEFEE7C9
:101C300010B5074B53F82040064B53F82020D2F83C
:101C400008310BB10A219847204600F0B5F910BDC4
:101C5000D438000018000020022801D900BEFEE799
:101C60002DE9F04395B08C4B53F820508B4B53F833
:101C70002060AB6A2A6B134003F00103002463B9B0
:101C80000134202C00F0B280AB6A2A6B134004F0C0
:101C90001F02D34003F00103F1E7002B00F0A68000
:101CA00007462B6813F0005F79D0072C77D8052CF6
:101CB00021D17379DBB2012B2AD13168284600F09B
:101CC00085F920232B6300237371D6F80081B8F1C6
:101CD000000F04D03346002201213846C0477379F3
:101CE00013B93846FFF724FF06EBC4035B79DBB278
:101CF000022B65D112E0062C43D140232B63D6F88A
:101D00000081B8F1000F03D0334600220221C04702
:101D100006EBC4035B79DBB2022B51D106EBC4089E
:101D200098F80730002B00F0A3802146284600F0E9
:101D3000A1F901AA2146284600F0A1F9AB689DF857
:101D4000073003F00F03042B06D104F01F02012318
:101D500093401F2C00D82B63002388F80530D6F859
:101D60000091B9F1000F04D03346224604213846D1
:101D7000C84798F805300BBB21463846FFF736FFB9
:101D80001CE0072C14D180232B63D6F80081B8F116
:101D9000000FBDD0334600220321C047B8E74FEA09
:101DA000C40906EB090898F80530DBB2012B20D0F6
:101DB00006EBC4035B79DBB2022BAFD01F2C15D826
:101DC000AB6A296B04F01F020B40D34013F0010FE4
:101DD0000CD02B6813F0005F52D0072C50D87379C9
:101DE00023B9012393401F2C00D82B6315B0BDE805
:101DF000F0832146284600F03DF956F8342021466C
:101E0000284600F03CF904F01F02012393401F2CE8
:101E100098BF2B632B6813F0005F27D056F809306A
:101E2000DB7813F00F0F21D12146284600F00AF984
:101E3000036823F070630360036843F0806303600A
:101E4000002388F80530D6F80091B9F1000F04D0CE
:101E50003346224600213846C84798F80530002B03
:101E6000A6D121463846FFF7C1FEA1E7AB68E7E7F8
:101E700004F01F02012393401F2C98BF2B636BE7D4
:101E800006EBC4067379002BB0D1012393401F2CBD
:101E9000ACD82B63AAE700BFD4380000180000209C
:101EA000022801D900BEFEE710B5074B53F82040C9
:101EB000064B53F82020D2F808310BB10A2198477D
:101EC000204600F06DF810BDD43800001800002046
:101ED000022801D900BEFEE7F8B5184B53F8205090
:101EE000174B53F820602B6813F4804F25D004461D
:101EF000D5F8083B13F4003F0CD0D5F8083B43F469
:101F00000033C5F8083BD6F800711FB133460022F4
:101F10000521B847D5F8083B13F4803F0DD0D5F81C
:101F2000083B43F48033C5F8083BD6F8005125B18F
:101F30003346002206212046A847F8BDD4380000C9
:101F400018000020082817D90938062813D8DFE818
:101F500000F00406080A0C0E10000C207047102038
:101F60007047142070471820704720207047302099
:101F7000704740207047002070471F2909D801F0A2
:101F80001F01012303FA01F12AB9836A23EA01013F
:101F9000816200207047836A19438162F9E700007B
:101FA000026A034B134013B1024B0362036A70478A
:101FB00006003B0002003000026A034B134013B1DD
:101FC000014B0362036A704704000B0009B900BEAD
:101FD000FEE770B50D460446D0F88000C0F303401C
:101FE000FFF7B0FF85F84800D4F880302B6013F479
:101FF000001F05D0D4F884306B60064628B970BD48
:10200000D4F884309B0C6B60F7E700238834990880
:102010008A0054F8211009BA2A4491600433B3426B
:10202000F5D370BD036813F4006F09D0D0F8000C2D
:10203000C0F301400330012303FA00F0C0B270473F
:102040000820FBE738B504460D46FFF7EBFF0830E4
:10205000C0B24FF40073B3FBF0F3DBB2B5FBF3F2A5
:1020600003FB12538008D20100FB0320203004EB55
:10207000800038BD08B5FFF7E5FF036808BD0AB961
:1020800000BEFEE72DE9F04114460746FFF7DAFFF0
:10209000064604F108080068C0F30340FFF752FF4A
:1020A00005463846FFF7BEFF854203D93846FFF79D
:1020B000B9FF054684F848503368236013F4001FC5
:1020C00022D07368636035F0030008BF00230BD093
:1020D000002399088A000832B25812BA48F8212021
:1020E0000433DBB28342F4D39D420BD9DA1D14448E
:1020F00083F003020832B25C04F8012F0133DBB233
:102100009D42F5D1BDE8F08173689B0C6360DAE70E
:1021100008B50020FFF788FD08BD08B50020FFF7CF
:10212000BFFE08BD08B50020FFF7D2FE08BD08B508
:102130000020FFF791FD08BD08B50020FFF78CFDDA
:1021400008BD08B50120FFF76FFD08BD08B50120E7
:10215000FFF7A6FE08BD08B50120FFF77DFD08BD0D
:1021600008B50220FFF760FD08BD08B50220FFF7A3
:1021700097FE08BD08B50220FFF76EFD08BD000000
:10218000032801D900BEFEE709B900BEFEE76D4B8A
:1021900053F820304A78002A40F090808A78002A4C
:1021A00040F0A180CA7802F001020878002800F00F
:1021B000C580002A40F09380D3F88C2042F48062DE
:1021C000C3F88C20D3F88C2042F40062C3F88C2032
:1021D000D3F88C2042F48052C3F88C20D3F88C20A2
:1021E00042F40072C3F88C20D3F88C00CA7A120231
:1021F00002F4807220F480700243C3F88C20D3F87C
:102200008C2042F08002C3F88C204A78002A57D0F4
:102210009A6D42F010029A658A78002A55D09A6D1C
:1022200042F020029A65CA78002A53D09A6D42F093
:1022300040029A65986D0A79520002F0020220F07D
:10224000020002439A659A6D22F001024879024326
:102250009A659A6D087A003018BF012022F00802B2
:1022600042EAC0029A65D3F88C008A79120102F022
:10227000100220F010000243C3F88C20D3F88C0029
:10228000CA79520102F0200220F020000243C3F874
:102290008C20D3F88C004A7A920002F0040220F0DD
:1022A00004000243C3F88C20D3F88C2022F00102F2
:1022B000897A0A43C3F88C2000207047012272E714
:1022C0009A6D22F010029A65A6E79A6D22F020021C
:1022D0009A65A8E79A6D22F040029A65AAE7012064
:1022E0007047012070470A78002AFAD1002A7FF44B
:1022F00063AFD3F88C2042F48022C3F88C20D3F84B
:102300008C2042F40022C3F88C20D3F88C2042F4B5
:102310008012C3F88C20D3F88C2042F40032C3F82A
:102320008C20D3F88C20C87A003018BF012022F40A
:10233000803242EA0042C3F88C2060E7002AD8D1FC
:1023400001207047E0380000032801D900BEFEE7F5
:1023500010B582B0184B53F8203000220192174A72
:1023600052F820200AB900BEFEE71B6803F00703FD
:1023700001249C401378022B10D0032B06D0012B94
:1023800011D101A90020FFF701FB04E001A90C4BCA
:10239000185CFFF7FBFA40B100BEFEE701A91A2066
:1023A000FFF7F4FAF7E70020F5E7E4B20198B0FB95
:1023B000F4F002B010BD00BFE0380000240000209F
:1023C000F0380000032801D900BEFEE709B900BEBD
:1023D000FEE70AB900BEFEE7F8B58C7B631EDBB2F0
:1023E000022B01D900BEFEE7354B53F82050354B88
:1023F00053F82030002B35D1147053709380314B3B
:1024000043F8202002F10C0402F11C0702F15C0EDB
:1024100002F13C0C3E46002324F8023B46F8043B04
:102420004CF8043B0EF8013BBC42F5D114460F4674
:102430000646284600F068F8797B284600F058F8F0
:102440003046FFF781FFA06070B900BEFEE70024B0
:1024500016E02B6823F480732B601B4B985700F019
:1024600093FD2BE0012429E03A7B931EDBB2022B83
:1024700001D9082AEBD139463046FFF781FE0446E0
:10248000EA6E7B7C9B0103F0400322F04002134381
:10249000EB66D5F88420FB7B9B01DBB222F0C00207
:1024A0001343C5F884303B7C002BD2D02B6843F417
:1024B00080732B60044B985700F052FD2046F8BD06
:1024C000E038000024000020F4380000032801D97F
:1024D00000BEFEE709B900BEFEE7044B53F820300A
:1024E0009868B0FBF1F080B2704700BF2400002074
:1024F000436D43F001034365036823F0070301F0D4
:1025000007010B430360704710B4436F0023436718
:10251000042242650268036043608360C364026D05
:1025200003658365C365036643668366C26EC366DF
:1025300003678367C367C0F88030C0F88430C0F891
:102540008830C0F88C30C0F89030C0F89430C0F8B3
:102550009830C0F89C30194600EBC302D468D160B3
:1025600011610133082BF7D15DF8044B704707293F
:1025700001D900BEFEE701290DD9052999BF02390D
:10258000012306394FF480738B403AB9C26E22EAB8
:102590000303C366704710238B40F6E7C26E1343F4
:1025A000C36670472DE9F047BDF820C0032801D964
:1025B00000BEFEE707298CBF4FF0000E4FF0010E62
:1025C000BEF1000F01D100BEFEE74C08544D55F896
:1025D0002060544D55F82070B568ADB27878042865
:1025E00024D16D00ADB2002052BBB3F5004F00F214
:1025F0008D80BCF5004F00F28C8005FB03F2C2F326
:10260000CF3205FB0CFCCCF3CF3CB3F5004F1ED111
:10261000531C9BB2C8B9032C8CBF4FF000094FF07C
:102620000109B9F1000F14D100BEFEE7032801D063
:10263000082803D10135ADB20020D5E70120D3E74A
:102640009D4269D36545E5D20120BDE8F087134678
:10265000E0E7D6F864A04FEAC408012202FA08F2C3
:1026600012EA0A0F39D0B9F1000F01D100BEFEE71E
:10267000716E802202FA08F20A4213D0326812F018
:10268000180F08D16200072A01D900BEFEE7013207
:1026900006EBC202936063000133DBB2072B0BD958
:1026A00000BEFEE76200072A01D900BEFEE7013244
:1026B00006EBC2029360EEE7013306EBC303C3F8F7
:1026C00008C0B26D9DF82430DB01DBB222F080023D
:1026D0001343B365BD80BDE8F087326812F0200F68
:1026E0000AD05B08BEF1000F01D100BEFEE74A1C14
:1026F00006EBC2029360E4E7BEF1000F01D100BE19
:10270000FEE74A1C06EBC2029360DAE70120BDE84F
:10271000F0870120BDE8F0870120BDE8F08700BF09
:10272000E038000024000020032801D900BEFEE7A5
:1027300009B900BEFEE72DE9F04F85B0AB4B53F869
:102740002080AB4B53F82040B8F1000F00F0FF831E
:1027500098F80130002B40F0FC830D46029023686E
:1027600023F018032360236823F400732360236895
:10277000636D43F0040363658B7888F801300B7850
:10278000002B00F05681CB681E7871085B79072E0C
:102790008CBF0020012008B900BEFEE70027BA4622
:1027A0004FF001094FF0020BDFE0226F09FA06F348
:1027B00013432367E2E008B900BEFEE704EBC6035B
:1027C000DA6842F00402DA60DA6822F00802DA60BD
:1027D000E8E000BEFEE7A3B1626ECB004FF0100C44
:1027E0000CFA03F313436366731CDBB2072B8CBF35
:1027F0004FF0000C4FF0010CBCF1000F0BD100BEEC
:10280000FEE7636ECA004FF0100C0CFA02F223EAE6
:1028100002036366E8E704EBC302D2F80CE02EF093
:10282000040EC2F80CE0D2F80CE04EF0080EC2F82C
:102830000CE0032901D900BEFEE7D4F864E0CA0029
:102840000BFA02F242EA0E026266EA683A4492F831
:1028500007E0BEF1010F40F0B5805279BCF1000FE6
:1028600001D100BEFEE7002A40F0A680226F09FADF
:1028700003F322EA0303236703298CBF0023012308
:10288000002B00F0C380626EC9004FF0040C0CFAFC
:1028900001FC22EA0C026266002B00F0B980626E35
:1028A00009FA01FC22EA0C026266002B00F0B280F9
:1028B000626E4FF0800C0CFA01FC22EA0C02626698
:1028C000002800F0A98004EBC602D06840F0100098
:1028D000D060D06840F02000D0606A69D278002BC8
:1028E00000F09C80002A00F09B80606E40228A40AD
:1028F00002436266002B00F09A80626E202303FA86
:1029000001F10A436266EB683B441A79314620467E
:10291000FFF72DFE226806F1100309FA03F31343B3
:102920002360EB683B449B793BB12268731CDBB2AC
:10293000103309FA03F3134323600AF1010A5FFA23
:102940008AFA2B78534574D90AEB8A014B001F464B
:10295000EA68134412F8116071085B79072E8CBF86
:102960000020012000283FF417AF002B7FF41DAF9B
:10297000236F09FA06F223EA02032367EB683B445C
:102980005A795B789A423FF416AF00283FF421AFA2
:1029900004EBC603DA6822F00402DA60DA6842F077
:1029A0000802DA60EB683B449A791AB31B7A07296C
:1029B0007FF611AF00BEFEE7226F09FA03F313435F
:1029C000236759E75279BCF1000F01D100BEFEE741
:1029D00032B1226F09FA03F322EA030323674BE7BC
:1029E000226F09FA03F31343236745E7240000200D
:1029F000E0380000032901D900BEFEE7636ECA007B
:102A00000BFA02F223EA0203636635E700BEFEE733
:102A100000BEFEE700BEFEE700BEFEE700BEFEE72A
:102A2000626E4020884022EA0002626662E700BED1
:102A3000FEE79D4B029A53F822606B78002B00F062
:102A40007A812B691A784FEA520C12F0010F11D1DA
:102A50005B7B072A8CBF0020012020BB00BEFEE765
:102A6000039B1F012B69D919DA5D4FEA520C12F052
:102A7000010F01D000BEFEE74B7B072A8CBF002070
:102A800001200028EAD09BB9336F09FA02F123EA4A
:102A9000010333672B693B44597B1B7A99421FD151
:102AA00060B900BEFEE7002703974FF00109EAE78F
:102AB000316F09FA02F30B433367EBE706EBC2030E
:102AC000D96841F00401D960D96821F00801D960C2
:102AD000BCF1030F8CBF0021012179B900BEFEE7D4
:102AE00008B900BEFEE706EBC203D96821F0040175
:102AF000D960D96841F00801D960E9E7D6F864E007
:102B00004FEACC034FF0040A0AFA03FA2EEA0A0E3F
:102B1000C6F864E008B900BEFEE706EBC200D0F8D4
:102B20000CE04EF0100EC0F80CE0D0F80CE04EF0C7
:102B3000200EC0F80CE0D6F800E002F1100009FA0F
:102B400000F040EA0E0030602869384490F809E04F
:102B5000BEF1000F58D002F1010E5FFA8EFE807BAD
:102B6000BEF1070F8CBF4FF0000A4FF0010ABAF117
:102B7000000F01D100BEFEE750B9306F09FA0EFB1D
:102B800020EA0B003067BAF1000F09D100BEFEE762
:102B9000D6F870B009FA0EF040EA0B003067F2E7A1
:102BA00006EBCE00D0F80CA02AF0040AC0F80CA066
:102BB000D0F80CA04AF0080AC0F80CA028693844E4
:102BC00090F80EB090F80DA0D3452ED190F80AA041
:102BD000BAF1000F1ED18079012801D100BEFEE7B5
:102BE00009B900BEFEE7706E4FF0020A0AFA03FA56
:102BF00020EA0A007066D6F800A00EF1100009FA6B
:102C000000F040EA0A0030606869C07800292DD1E0
:102C100000BEFEE709B900BEFEE7D6F864A00220B8
:102C2000984040EA0A007066E5E790F80AA0BAF119
:102C3000000F0AD109B900BEFEE7D6F864A0022051
:102C4000984040EA0A007066D5E78079012801D1F2
:102C500000BEFEE709B900BEFEE7706E4FF0020A43
:102C60000AFA03FA20EA0A007066C4E748B1D6F807
:102C700064E04020984040EA0E00706651B900BE02
:102C8000FEE7706E4FF0400E0EFA03FE20EA0E00D3
:102C90007066F3E7D6F864E02020984040EA0E0022
:102CA000706619B900BEFEE7E0380000D6F864E0AF
:102CB00009FA03F040EA0E00706628693844C079CA
:102CC00009B900BEFEE760B1706E802199400143F2
:102CD0007166296939448979BCF1070F08D900BEAA
:102CE000FEE7716E8020984021EA00017166F0E7EE
:102CF000002953D0706E102101FA03F30343736669
:102D000002F0FE0A2B693B44DA7A51463046FFF75F
:102D10002EFC2B693B440AF101011A7BC9B23046F3
:102D2000FFF725FC039B0133DBB21A4603936B7854
:102D300093423FF695AE636D43F0020363656B69A2
:102D4000DA78002A7CD01B78002B2FD0E36F43F475
:102D50000043E367E26F6B699B781B0203F47063C7
:102D600022F470621343E367029B042B34BF4FF0DD
:102D7000040C4FF0020C04260020012703466A6968
:102D800000EB40010A441279002A43D0C2B2032A60
:102D90008CBF0022012272B900BEFEE7716E1020C6
:102DA00000FA03F321EA03037366A9E7E36F23F450
:102DB0000043E367CEE7E16F07FA00FE41EA0E0148
:102DC000E167696900EB4009494449790AB900BEE5
:102DD000FEE771B1D4F87C9007FA06F141EA0901E7
:102DE000E167696903EB43030B449B7942B900BE79
:102DF000FEE7E16F07FA06F921EA0901E167F0E76A
:102E0000012BD4F888300CBF23EA0E0343EA0E03EB
:102E1000C4F8883001300136C3B29C45AED86B6926
:102E20005B781BB1636D43F080036365626D6B6912
:102E3000DB785B0103F0600322F0600213436365FB
:102E40002368AA78042A14BF0022012223F0200359
:102E500043EA42132360A9680298FFF737FBA8F8FA
:102E60000400E36C1B0C1B04E364AB78042B3BD124
:102E7000A368B8F804201B0C1B0443EA5203A360A8
:102E80002B78002B67D00026374606EB8601EA68D0
:102E900002EB41035B8812F81110019700973A4644
:102EA0000298FFF77FFB0136F6B22B78B342ECD8DD
:102EB0006B7893B100263746310128694218538850
:102EC000415C0197928800923A460298FFF76AFBAC
:102ED0000136F6B26B78B342EED8002833D1EA78E7
:102EE0003F2A0BD900BEFEE7A268B8F80430013BC8
:102EF0009BB2120C12041343A360C1E7A36E23F02C
:102F00003F0302F03F021343A366A26E2B799B019D
:102F1000DBB222F0C0021343A366636D43F00103EA
:102F20006365636D43F008036365226898F80030B9
:102F3000DB0003F0180322F0180213432360002083
:102F400005B0BDE8F08F002388F80130F8E70120D4
:102F5000F6E70120F4E76B78002BABD1BFE700BFA9
:102F6000002801DA00BEFEE77A2801DD00BEFEE798
:102F7000420900F01F00012303FA00F0014B43F85F
:102F80002200704700E100E0002801DA00BEFEE701
:102F90007A2801DD00BEFEE7430900F01F00012290
:102FA00002FA00F02033024A42F82300704700BFC3
:102FB00000E100E0054B1B68002B04DD013B034AE8
:102FC0001360002B00DD704762B6FCE73400002080
:102FD00072B6024A13680133136070473400002050
:102FE00060B170B506460C460025204600F040F85A
:102FF00001351834AE42F8D1002070BD0020704772
:10300000194B98421ED110292AD8DFE801F0090C8B
:1030100029292929292929292929290F121518009F
:1030200042F00100704742F00200704742F0040095
:10303000704742F00800704702F00E00704702F03F
:103040000D007047094B98420CD119B1012904D0E9
:10305000FF20704702F00B00704702F00700704736
:10306000FF207047FF20704700A0044000B00440DC
:1030700038B504460068031C18BF01230BB900BE15
:10308000FEE71A46E37A012B02D032B900BEFEE712
:103090002269003218BF0122F7E761681F2901D9B0
:1030A00000BEFEE750F82120257A012D58D01DB131
:1030B000022D5AD000BEFEE722F00202657A2D01F1
:1030C00005F0100522F050022A43A57AAD0105F063
:1030D00040052A4322F4E065082B12D1314B5A688F
:1030E00002F00F02FFF78CFFFF2841D02D4A5368F2
:1030F00023F00F035360516800F00F030B4353603C
:1031000000231B0203F4E0632B43227BD20392B221
:1031100023F478231343627B120402F470221343D6
:10312000A27B0AB143F080732268616842F82130C3
:103130002168D1F8C03060680122824023EA02028F
:10314000E37B83401343C1F8C030E37A012B18D1ED
:1031500021694B69227D6AB1012A13D000BEFEE7C6
:1031600022F0010242F00202A8E742F00302A5E7C2
:103170000023C6E7616801228A4023EA020322692C
:10318000536138BD606801228240134305460A68D6
:103190000120A84022EA0000627DAA4002430A60A2
:1031A000EDE700BF0080044008B900BEFEE72DE94E
:1031B000F04FB7B0044609B900BEFEE70378002B14
:1031C00040F00B814368032B01D900BEFEE703AB3F
:1031D0000022039204920592069212AA109222AA49
:1031E0000F9211930B68586902788DF82A20427863
:1031F0008DF8292082788DF834205A78012A0CBF66
:10320000042203228DF832209DF832208DF82820E8
:1032100001258DF81C5000228DF81E208DF81F20EE
:103220008DF81D208DF826208DF824208DF825504E
:103230008DF822508DF823208DF820508DF8212014
:103240008DF827208DF82C208DF82B208DF831203B
:103250008DF8302082788DF834209A7B8DF83320D9
:103260000F79002F00F0AA809E4600220192284686
:10327000DFF8A8C123E04FEA880505EB080936AE60
:1032800006EB490909F84F2C09F84B2C9DF83050F2
:103290004FEA850808EB050936AE06EB490909F83F
:1032A0004C2C09F8482C09F84A2C01358DF830507F
:1032B000019D013501951833EDB2BD427ED2A3EBDD
:1032C0000E08DD7BFDB99DF8308008EB880936AD2E
:1032D00005EB49099D68ED035E68B5FBF6F529F835
:1032E0004E5C1D7809F8505C1D7B002DC3D14FEA60
:1032F000880505EB080936AE06EB490909F84F0CBD
:1033000009F84B2CC2E79D68ED035E68B5FBF6FA41
:103310009DF8315036AE06EB051929F88E2C29F8A8
:103320008CAC09F8892C09F8870C93F800A009F8EF
:1033300090AC93F80C90B9F1000F2DD106EB051568
:1033400005F8880C05F8832C05F8822CD1F800903C
:1033500009EB080A9AF8105045BB9DF8315036AE7B
:1033600006EB051505F8862C9DF8315036AE06EBB8
:10337000051B0BF8852C9AF80DA00BF88AAC0BF8FE
:10338000842C01358DF83150656819F808800CEBF4
:10339000C50505F808008BE736AE06EB051505F800
:1033A000882C05F8832C05F8822CCFE79DF8315046
:1033B00036AE06EB051505F8860CD5E7144B1B78E1
:1033C0004BB96268134B1A600122114B1A7000232B
:1033D0002BB100BEFEE70123FAE700BEFEE70D4673
:1033E00064210D4A01FB032207A96068FEF7EAFF8A
:1033F0006068FEF7A9FF2B685B68B0FBF3F30E93E0
:103400000CA96068FFF790F937B0BDE8F08F00BFF6
:10341000A00000209C00002038000020A400002014
:1034200008B900BEFEE70346007810BB58680328C1
:1034300001D900BEFEE710B582B013460E4A02EB7A
:10344000C002525C6AB111F0010F01D000BEFEE76C
:10345000012201929BB200930023FFF7A3F802B070
:1034600010BD01220192002400949BB2FFF79AF84C
:10347000F5E700BEFEE700BFA4000020024A136883
:1034800001331360704700BFC400002008B900BEBC
:10349000FEE710B50446FFF79BFD2378DBB2FF2B58
:1034A00008D023780133DBB223700024FFF782FDBC
:1034B000204610BD0124F9E7274AD2F8903043F0A6
:1034C0008043C2F89030254B1A6842F000421A60DF
:1034D0005A6822F400525A601A6842F0A0421A60F8
:1034E0001A6822F000421A601A46136813F0807FAF
:1034F000FBD01B4A194B5A6000231848194603F1A8
:10350000200240F822100133802BF8D10023134809
:103510004FF0FF3103F5087240F822100133102BF1
:10352000F8D10E4B6FF060421A614FF40022C3F8DD
:10353000C4204FF08062C3F8C0201A6822F0A04275
:103540001A601A46136813F0807FFBD1034A136890
:1035500013F0006FFBD1704700500640004002405E
:103560000600DB000B4A012313634FF48023C2F8EB
:10357000843003F14463C2F88030417883781B04BF
:1035800043EA012301780B43C17843EA0163C2F89F
:103590008830704700400240184BD3F8C030C3F366
:1035A0000263022B01D00020704770B40146134B18
:1035B000D3F8C000C0F30340D3F8C850D8B10A46CE
:1035C0000E18002325FA03F402F8014BB24202D090
:1035D0000833202BF6D1032807D803460B440024D8
:1035E00003F8014B5A1A032AFAD9044B9A6810229D
:1035F0001A6370BC70470346F0E700BF004002400A
:1036000008B50448FDF7CCFD03490720FFF7E8FCA7
:1036100008BD00BFA084FF1FEC85FF1F02280CD04F
:1036200003280FD0012803D00022094B1A607047ED
:103630004FF4FA62064B1A60704740F6B832044BFA
:103640001A6070474FF47A62014B1A60704700BFEE
:10365000D4000020F8B5FFF7D3FFFFF72DFF1A4B7A
:103660001B681F781948FDF79BFD08B100BEFEE7F7
:1036700017490720FFF7B4FC08B100BEFEE7124966
:103680001448FFF791FD08B100BEFEE7124E134D3E
:10369000104C326839462046FFF7C2FE90B92B6BBA
:1036A00013F0100FF5D00E48FFF776FF0D4B1860A2
:1036B0000028EDD00A4C2046FFF754FF2078FFF792
:1036C000ADFFE5E700BEFEE7E085FF1FA084FF1F1A
:1036D000EC85FF1FC8000020D400002000400240FD
:1036E000D8000020D00000200000000000000000F2
:1036F00000000000000000000000000000000000CA
:1037000000000000000000000000000000000000B9
:1037100000000000000000000000000000000000A9
:103720000000000000000000000000000000000099
:1037300000000000000000000000730032002100C3
:10374000610049004A004B004C004D003D00000064
:10375000240025002B00360031000000200000006E
:10376000380039003A00260000003B0027005A00CC
:10377000660037002C002D002E0040006A006B0010
:103780006C000000000000000000000000000000CD
:103790000000000000FCAC06007E5603003FAB01B9
:1037A00000FCAC06007E5603003FAB0100FCAC06FB
:1037B000007E5603003FAB01000000000000000047
:1037C00000000000000000000000000000000000F9
:1037D00000FCAC06007E5603003FAB010000000079
:1037E000000000000000000000B4C404006CDC0213
:1037F000B0F3960100B4C404006CDC02B0F396018F
:1038000000B4C404006CDC02B0F3960100000000B8
:1038100000000000000000000000000000000000A8
:103820000000000000B4C404005A6202B0F3960124
:1038300000000000000000000000000000093D0042
:1038400000093D0040420F0000093D0000093D0015
:1038500040420F0000093D0000093D0040420F00BA
:103860000000000000000000000000000000000058
:10387000000000000000000000093D0000093D00BC
:1038800040420F00000000000000000000000000A7
:103890000000000000000000000000000000000028
:1038A0000000004141414141000000000020202073
:1038B0002020202020202000404040404000800068
:1038C00048484848003030303030303030363030C2
:1038D00030000000004002400050024000B00240B2
:1038E000008003400090034000A0034000600240BD
:1038F0003C3D3E3F686E747AF8B500BFF8B500BF36
:103900004101020000420102000029010000002ADA
:10391000010000002B010000002C01000000340118
:1039200000000035010000003601000000430102E4
:1039300000003A010000003C010200003D010200CD
:10394000003E010200003F010200004401020000AD
:103950004501020000460102000047010200004844
:103960000102000049010200004A010200004B016F
:103970000200004C01020000370100000038010085
:1039800000002D010000002E010000002F010000AA
:103990000030010000003101000000320100000091
:1039A000010101010101000001010000010001000D
:1039B00000127A0000010003010100000001000074
:1039C00000000C00020300000100000000000000E5
:1039D00000000000030101000003030001020301D5
:1039E00000060001010100000100000101000000CB
:1039F0000100000080841E000000000000000000A4
:103A000000000000000000000000000000000000B6
:103A1000010101010101010100000000200000007E
:103A20002885FF1F01010000410102000042010240
:103A300000004601020000470102000048010200A8
:103A4000004A010100004B010100004C010100008F
:103A50004401020000450102000049010200003C4F
:103A6000010200003D010200003E010200003F0192
:103A7000020000430102000029010000002A0100A9
:103A800000002B010000002C010000003A010000A2
:103A90000037010000003801000000320100000082
:103AA0003401000000350100000036010000002D47
:103AB000010000002E010000002F01000000300175
:103AC0000000003101000000010000008813000028
:103AD000C40900000000000000000000E885FF1F8E
:103AE000C885FF1F010000000100010000B0044074
:103AF00000000000000000010000000080F00F4006
:103B00000100000000B004400100000000000001BE
:103B10000000000080F00F400100000000B00440F1
:103B20000C000000000000010000000080F00F40C9
:103B30000000000000B004400D0000000000000183
:103B40000000000080F00F400000000000C00440B2
:103B50001000000000000002000000000000000053
:103B60000000000000D00440040000000000000538
:103B700000000000000000000000000000D0044031
:103B8000050000000000000500000000000000002B
:043B90000000000031
:0400000300000411E4
:00000001FF
